101341175200019700174980800101FIGUEIREDO ALIMENTOS CONGELADOS LTDBELO HORIZONTE                MG31886770832014090120140930331
11RUA FURTADO DE MENEZES            00366A                     SANTA ROSA     31255780VANIA LUCIA ZANON           003188677083
50117966020003850022075790108 20140900MG5501 0002685102P000000006617000000000000000000000000000000000000000000000000000000000N
50117966020003850022075790108 20140900MG5501 0002685102P000000006617000000000000000000000000000000000000000000000000000000000N
54117966020003855501 0002685102102100CR001         000000200000000000320000000000068800000000000000000000000000000000000000000
54117966020003855501 0002685102102200FR004         000000200000000000300000000000064500000000000000000000000000000000000000000
54117966020003855501 0002685102102300CS003         000000150000000000105000000000022580000000000000000000000000000000000000000
54117966020003855501 0002685102102400CS004         000000100000000000080000000000017200000000000000000000000000000000000000000
54117966020003855501 0002685102102100CR001         000000200000000000320000000000068800000000000000000000000000000000000000000
54117966020003855501 0002685102102200FR004         000000200000000000300000000000064500000000000000000000000000000000000000000
54117966020003855501 0002685102102300CS003         000000150000000000105000000000022580000000000000000000000000000000000000000
54117966020003855501 0002685102102400CS004         000000100000000000080000000000017200000000000000000000000000000000000000000
752014090020140900CR001         21069090BIFE A ROLE, ARROZ E PURE DE BATATAS                 UN    000000000000000000000000000
752014090020140900FR004         21069090STROGONOFF DE FRANGO, ARROZ E BATATA PALHA           UN    000000000000000000000000000
752014090020140900CS003         21069090CALDO DE MANDIOCA                                    UN    000000000000000000000000000
752014090020140900CS004         21069090CANJA DE GALINHA                                     UN    000000000000000000000000000
752014090020140900CR001         21069090BIFE A ROLE, ARROZ E PURE DE BATATAS1                UN    000000000000000000000000000
752014090020140900FR004         21069090STROGONOFF DE FRANGO, ARROZ E BATATA PALHA1          UN    000000000000000000000000000
752014090020140900CS003         21069090CALDO DE MANDIOCA1                                   UN    000000000000000000000000000
752014090020140900CS004         21069090CANJA DE GALINHA1                                    UN    000000000000000000000000000
9013411752000197001749808001015000000002540000000875000000080
