10134117520001970017498080010 FIGUEIREDO ALIMENTOS CONGELADOS LTDBELO HORIZONTE                MG31886770832014090120140930331
11RUA FURTADO DE MENEZES            00366A                     SANTA ROSA     31255780VANIA LUCIA ZANON           003188677083
50117966020003850022075790108 20140908MG5501 0002685102P000000006617000000000000000000000000000000000000000000000000661710000N
54117966020003855501 0002685102102001CR001         000000200000000000320000000000068890000000000000000000000000000000000000000
54117966020003855501 0002685102102002FR004         000000200000000000300000000000064580000000000000000000000000000000000000000
54117966020003855501 0002685102102003CS003         000000150000000000105000000000022600000000000000000000000000000000000000000
54117966020003855501 0002685102102004CS004         000000100000000000080000000000017220000000000000000000000000000000000000000
54117966020003855501 0002685102   991              000000000000000000000000000000030000000000000000000000000000000000000000000
752014090120140930CR001         21069090BIFE A ROLE ARROZ E PURE DE BATATAS                  UN    000000000000000000000000000
752014090120140930CS003         21069090CALDO DE MANDIOCA                                    UN    000000000000000000000000000
752014090120140930CS004         21069090CANJA DE GALINHA                                     UN    000000000000000000000000000
752014090120140930FR004         21069090STROGONOFF DE FRANGO ARROZ E BATATA PALHA            UN    000000000000000000000000000
88SME13411752000197SEM MOVIMENTO DE ENTRADAS                                                                                  
90134117520001970017498080010 50000000015400000005750000000488000000019900000014                                             1